:100000000C94D5000C94F6000C94F6000C94350278
:100010000C94F6000C94F6000C94F6000C94F60088
:100020000C94F6000C94F6000C94F6000C94F60078
:100030000C94F6000C94F6000C94F6000C94F60068
:100040000C94F6000C94F6000C94F6000C94F60058
:100050000C94F3020C94F6000C94F6000C94F60049
:100060000C94F6000C94F6000C94F6000C94F60038
:100070000C94F6000C94F6000C94F6000C94F60028
:100080000C94F6000C94F6000C94F6000C94F60018
:100090000C94F6000C94F6000C94F6000C943904C1
:1000A0000C94F6000C94F6000C94F6000C94F600F8
:1000B0000C94F6000C94F6000C94F6000C94F600E8
:1000C0000C94F6000C94F6000C94F6000C94F600D8
:1000D0000C94F6000C94F6000C94F6000C94F600C8
:1000E0000C94F6005804AA04AA04AA04AA04AA04B8
:1000F000AA04AA045804AA04AA04AA04AA04AA04E2
:10010000AA04AA045A04AA04AA04AA04AA04AA04CF
:10011000AA04AA04AA04AA04AA04AA04AA04AA046F
:10012000AA04AA045A04AA04AA04AA04AA04AA04AF
:10013000AA04AA04AA04AA04AA04AA04AA04AA044F
:10014000AA04AA04A604AA04AA04AA04AA04AA0443
:10015000AA04AA048304AA04AA04AA04AA04AA0456
:10016000AA04AA04AA04AA04AA04AA04AA04AA041F
:10017000AA04AA047704AA04AA04AA04AA04AA0442
:10018000AA04AA0495040C94A6040C9495040C9457
:1001900083040C9442010C9477040C9438010C9461
:1001A0005A040C9458040C94AA0411241FBECFEFD7
:1001B000D1E2DEBFCDBF00E00CBF12E0A0E0B2E0B4
:1001C000E2E3F4E100E00BBF02C007900D92AA3316
:1001D000B107D9F722E0AAE3B2E001C01D92A5362B
:1001E000B207E1F70E94F8000C94170A0C94000083
:1001F000F894109247021092480287E690E00E941D
:100200004B010E94B70180E00E94CF0141E061E014
:100210008BE20E9499010E94C7020E9423030E9460
:10022000D0030E94DE040E94A40587E092E09F9321
:100230008F930E940C0678942FEF83ED90E321506A
:1002400080409040E1F700C000000E9435050F900B
:100250000F90809147020E94C004809147020E9443
:100260002705809148020E940F030E94EE04F1CFFF
:10027000E0ECF0E0908195FFFDCF8093C60080E038
:1002800090E00895E0ECF0E080818823ECF7809125
:10029000C60090E008959093C5008093C40088E163
:1002A0008093C1008EE08093C20062E471E088E335
:1002B00091E00E94C105089587E884B92F9A81E5ED
:1002C0008CBD08958EBD0DB407FEFDCF089580E06E
:1002D0000E9462018EB50895CF93C82F2F9883E0B6
:1002E0000E9462018C2F0E9462010E9467012F9A76
:1002F000CF910895CF93DF93D82FC62F2F9882E008
:100300000E9462018D2F0E9462018C2F0E94620167
:100310002F9ADF91CF9108952F980E9462012F9A12
:1003200008952F9880EA0E9462010E9467012F9A27
:1003300008951F93CF93DF93182FD62FC42F2F9894
:1003400085E00E946201812F0E9462018D2F0E9430
:1003500062018C2F0E9462012F9ADF91CF911F9131
:1003600008952F9880EC0E9462012F9A08950E94B0
:100370005C010E94B1015298EA9AE9E6F0E08081BE
:100380008062808380818F7E808341E061E08BE2A8
:100390000E94990160E680E60E947A010895482F44
:1003A00060EE8FE00E9499010895EF92FF920F9303
:1003B0001F93CF93DF93CDB7DEB72B970FB6F8948B
:1003C000DEBF0FBECDBFE982FA820B831C832D8373
:1003D0003E834F83588769877A878B876E2D81E3A9
:1003E0000E947A016A8182E30E947A01602F85E38C
:1003F0000E947A01002379F07E0184E0E80EF11C6E
:100400000A5C16E3F70161917F01812F0E947A0156
:100410001F5F1013F7CF81E80E948C012B960FB657
:10042000F894DEBF0FBECDBFDF91CF911F910F912A
:10043000FF90EF9008958CE20E946C0180FF14C041
:1004400040E061E08CE20E94990186E60E946C0126
:100450001F928F938DE092E09F938F930E940C06E2
:100460000F900F900F900F9008951F920F920FB65C
:100470000F9211240BB60F92CF92DF92EF92FF9260
:100480000F931F932F933F934F935F936F937F939C
:100490008F939F93AF93BF93EF93FF93CF93DF938C
:1004A000CDB7DEB72897DEBFCDBF85E60E946C01D1
:1004B000082F0F70093008F008E081E60E946C01F7
:1004C000C82E82E60E946C01D82E4EEF61E08CE2CD
:1004D0000E9499010023C1F1CE0101967C010A59C5
:1004E00016E6812F0E946C01F70181937F011F5F47
:1004F0001013F7CFC1102AC0F0EEDF1207C08981B8
:10050000809347028B818093480220C080E2D812FA
:100510000CC082E192E09F938F930E940C0681E0D1
:10052000809345020F900F9011C090E4D9120EC035
:1005300089E192E09F938F930E940C0681E0809363
:1005400046020F900F9002C0CC20B1F228960FB651
:10055000F894DEBF0FBECDBFDF91CF91FF91EF9139
:10056000BF91AF919F918F917F916F915F914F91CB
:100570003F912F911F910F91FF90EF90DF90CF90BF
:100580000F900BBE0F900FBE0F901F901895259ADD
:10059000E0E8F0E080818068808380818F7B8083C9
:1005A00080818260808380818E7F8083E1E8F0E0BB
:1005B00080818861808380818B7F8083808182605D
:1005C00080838CE98093870080E4809386008BE0B1
:1005D0008093890088EB80938800EFE6F0E08081CB
:1005E0008160808308951F920F920FB60F9211249D
:1005F0008F9380913A02853038F48F5F80933A026E
:1006000081E080933B0205C081E080933C02109220
:100610003A028F910F900FBE0F901F90189590E0A7
:100620008F529F4F880F991F880F991F880F991F0E
:100630009C01295037402F35394020F49093890090
:100640008093880008958098EAE7F0E080818068D0
:100650008083ACE7B0E08C911C92ABE7B0E08C916A
:10066000877F8C9380818C7F80838081846080836E
:100670000895EAE7F0E0808180648083808186FDD0
:10068000FDCFF89480917800909179007894089546
:100690000E9439039F938F9383E392E09F938F93FC
:1006A0000E940C060F900F900F900F900895CF931B
:1006B000DF9380913B02882309F46FC010923B02C4
:1006C00080913D0290913E0249970CF052C0C0913A
:1006D0003D02D0913E020E943903CC0FDD1FC35B67
:1006E000DD4F99838883E0913D02F0913E02A09115
:1006F0003D02B0913E02AA0FBB1FA35BBD4F8D917F
:100700009C91EE0FFF1FE35BFD4F11821082E09181
:100710003D02F0913E02A0913D02B0913E02AA0F2F
:10072000BB1FA35BBD4F8D919C91EE0FFF1FE35B41
:10073000FD4F11821082E0913D02F0913E02EE0FDA
:10074000FF1FE35BFD4F2081318180914B0290912F
:100750004C02820F931F90934C0280934B02809126
:100760003D0290913E02019690933E0280933D029D
:1007700014C010923E0210923D0280914B02909163
:100780004C0210924C0210924B0281E292E09F9335
:100790008F930E940C060F900F90DF91CF910895D8
:1007A00087E292E09F938F930E940C068CE08093E7
:1007B000B8008FEF8093BB0084E08093BC000F9063
:1007C0000F9008958091BC0081700895ECEBF0E0EB
:1007D000808180FDFDCF809100020895DC01ECEB6B
:1007E000F0E0908190FDFDCF609341029C91909349
:1007F000420290FD0DC0623058F011968C91119715
:1008000080934302633020F012968C9180934402CF
:1008100010923F0288EF8093000285EA8093BC002B
:100820000895ECEBF0E0808180FDFDCF10923F0257
:1008300088EF8093000285EA8093BC000895ECEB7A
:10084000F0E0208120FDFDCF20913F0220FF0DC070
:10085000662359F022E432E0A82FB92FF9018191E3
:100860008D938E2F821B8617D0F380913F0281706B
:1008700008951F920F920FB60F9211240BB60F928C
:100880002F933F938F939F93AF93BF93EF93FF93D8
:10089000E091B9008E2F90E0FC013897E135F10529
:1008A00008F058C08827EE58FF4F8F4F0C94B905B9
:1008B00010924002E091400280914102E81770F4EA
:1008C00081E08E0F80934002F0E0EE5BFD4F80816F
:1008D0008093BB0085E88093BC0043C080913F02B9
:1008E000816080933F0284E98093BC003AC0E0912C
:1008F000400281E08E0F809340028091BB00F0E0C7
:10090000EE5BFD4F80832091400230E080914102F8
:1009100090E001972817390724F485EC8093BC00F8
:1009200020C085E88093BC001CC08091BB00E09192
:100930004002F0E0EE5BFD4F808380913F028160DA
:1009400080933F0284E98093BC000BC085EA8093CA
:10095000BC0007C08091B9008093000284E08093BE
:10096000BC00FF91EF91BF91AF919F918F913F910B
:100970002F910F900BBE0F900FBE0F901F901895E8
:10098000CF93DF9300D0CDB7DEB790E599831A827D
:10099000282F30E02058310922F490E8981B892F45
:1009A00001C080588B8363E0CE0101960E94EE0364
:1009B0000F900F900F90DF91CF910895E1E0F1E05B
:1009C00080818A67808310920701E2E0F1E08081F4
:1009D000806180838081806480830895CF93DF93DA
:1009E00080913C02882381F110923C02E2E0F1E028
:1009F00080818F7D808380818F7E80838AE68A9547
:100A0000F1F700C0A6E0B1E0CC91808180618083E5
:100A10008AE68A95F1F700C09C918081806280838C
:100A2000D0E0DC2FCC27C90FD11DDF93CF9383E318
:100A300092E09F938F930E940C068C2F9D2F0F9016
:100A40000F900F900F9000C0DF91CF9108958823F1
:100A500034F0E2E0F1E080818D7F80830895E2E070
:100A6000F1E08081826080830895E2E0F1E080819E
:100A70008F7B808380818064808380EC0E94270547
:100A800080EC0E94C0042FEF81E093E5215080406C
:100A90009040E1F700C0000080E80E94C0042FEF02
:100AA00089E698E1215080409040E1F700C00000C5
:100AB0000E94EE04909358028093570280E40E94B3
:100AC000270580E40E94C0042FEF8FE39CE92150AA
:100AD00080409040E1F700C0000080E80E94C00420
:100AE0002FEF89E698E1215080409040E1F700C067
:100AF00000000E94EE0490935A02809359022091C4
:100B00005702309158028091590290915A023F93B6
:100B10002F939F938F938EE292E09F938F930E94E7
:100B20000C060F900F900F900F900F900F9008955C
:100B3000E2E0F1E080818F7E80830895E2E0F1E0E1
:100B40008081806180830895389A409808958091CB
:100B50004602882369F010924602409A2FEF81EEF8
:100B600094E0215080409040E1F700C000004098A0
:100B70000895EE0FFF1F881F8BBF0790F691E02DA1
:100B800019940F931F93CF93DF93009731F461155E
:100B9000710519F480E090E03AC08B01EC016EE041
:100BA00070E081E090E00E941B08FC01892B91F32A
:100BB00080E883830115110571F01387028781E8AE
:100BC000838380915B0290915C02892B21F4F093E6
:100BD0005C02E0935B022097C9F0D187C0878381D4
:100BE0008260838380915D0290915E02892B71F413
:100BF000F0935E02E0935D0280915F02909160024B
:100C0000892B21F4F0936002E0935F02CF01DF9122
:100C1000CF911F910F910895CF93DF93CDB7DEB79A
:100C2000AE014A5F5F4FFA0161917191AF0180910E
:100C30005D0290915E020E942006DF91CF9108959F
:100C40002F923F924F925F926F927F928F929F92DC
:100C5000AF92BF92CF92DF92EF92FF920F931F93CA
:100C6000CF93DF93CDB7DEB72C970FB6F894DEBFE6
:100C70000FBECDBF7C016B018A01FC011782168279
:100C8000838181FFBDC1CE0101964C01F7019381A3
:100C9000F60193FD859193FF81916F01882309F4FB
:100CA000ABC1853239F493FD859193FF81916F013A
:100CB000853229F4B70190E00E948109E7CF512CD9
:100CC000312C20E02032A0F48B3269F030F48032F5
:100CD00059F0833269F420612CC08D3239F08033B1
:100CE00039F4216026C02260246023C0286021C01E
:100CF00027FD27C030ED380F3A3078F426FF06C0C4
:100D0000FAE05F9E300D1124532E13C08AE0389E06
:100D1000300D1124332E20620CC08E3221F426FDBA
:100D20006BC1206406C08C3611F4206802C088367E
:100D300041F4F60193FD859193FF81916F0181113B
:100D4000C1CF982F9F7D9554933028F40C5F1F4F8F
:100D5000FFE3F9830DC0833631F0833771F08335BB
:100D600009F05BC022C0F801808189830E5F1F4FAC
:100D700044244394512C540115C03801F2E06F0E05
:100D8000711CF801A080B18026FF03C0652D70E0C2
:100D900002C06FEF7FEFC5012C870E9476092C01FE
:100DA00083012C852F77222E17C03801F2E06F0EB9
:100DB000711CF801A080B18026FF03C0652D70E092
:100DC00002C06FEF7FEFC5012C870E9464092C01E0
:100DD0002C852068222E830123FC1BC0832D90E0EC
:100DE00048165906B0F4B70180E290E00E948109EC
:100DF0003A94F4CFF50127FC859127FE81915F019C
:100E0000B70190E00E94810931103A94F1E04F1A45
:100E100051084114510471F7E5C0843611F0893648
:100E200039F5F80127FF07C06081718182819381C4
:100E30000C5F1F4F08C060817181072E000C880B6A
:100E4000990B0E5F1F4F2F76722E97FF09C090955A
:100E50008095709561957F4F8F4F9F4F2068722EC0
:100E60002AE030E0A4010E94B909A82EA81844C0C5
:100E7000853729F42F7EB22E2AE030E025C0F22FEC
:100E8000F97FBF2E8F36C1F018F4883579F0B4C0E1
:100E9000803719F0883721F0AFC02F2F2061B22E94
:100EA000B4FE0DC08B2D8460B82E09C024FF0AC08B
:100EB0009F2F9660B92E06C028E030E005C020E1E3
:100EC00030E002C020E132E0F801B7FE07C06081E7
:100ED0007181828193810C5F1F4F06C06081718197
:100EE00080E090E00E5F1F4FA4010E94B909A82E78
:100EF000A818FB2DFF777F2E76FE0BC0372D3E7F87
:100F0000A51450F474FE0AC072FC08C0372D3E7E52
:100F100005C0BA2C372D03C0BA2C01C0B52C34FF44
:100F20000DC0FE01EA0DF11D8081803311F4397E80
:100F300009C032FF06C0B394B39404C0832F8678EF
:100F400009F0B39433FD13C030FF06C05A2CB3141C
:100F500018F4530C5B18B32CB31468F4B70180E297
:100F600090E03C870E948109B3943C85F5CFB3148F
:100F700010F43B1801C0312C34FF12C0B70180E3DC
:100F800090E03C870E9481093C8532FF17C031FD0B
:100F900003C088E790E002C088E590E0B7010CC08C
:100FA000832F867859F031FF02C08BE201C080E2C6
:100FB00037FD8DE2B70190E00E948109A51438F455
:100FC000B70180E390E00E9481095A94F7CFAA9478
:100FD000F401EA0DF11D8081B70190E00E948109C2
:100FE000A110F5CF332009F451CEB70180E290E093
:100FF0000E9481093A94F6CFF7018681978102C059
:101000008FEF9FEF2C960FB6F894DEBF0FBECDBFCB
:10101000DF91CF911F910F91FF90EF90DF90CF90D4
:10102000BF90AF909F908F907F906F905F904F9008
:101030003F902F9008950F931F93CF93DF93869F38
:101040008001879F100D969F100D1124C8010E94EA
:101050003708EC01009729F0A80160E070E00E94D9
:101060006F09CE01DF91CF911F910F910895CF931A
:10107000DF938230910510F482E090E0E09163020A
:10108000F091640220E030E0C0E0D0E0309711F150
:101090004081518148175907C0F04817590761F43A
:1010A00082819381209719F09B838A832BC0909330
:1010B00064028093630226C02115310519F042179E
:1010C000530718F49A01BE01DF01EF010280F3819A
:1010D000E02DDCCF2115310509F1281B390B243017
:1010E000310590F412968D919C91139761157105BD
:1010F00021F0FB019383828304C090936402809368
:101100006302FD01329644C0FD01E20FF31F81939B
:101110009193225031092D933C933AC02091610262
:1011200030916202232B41F420910302309104029A
:1011300030936202209361022091010230910202F9
:101140002115310541F42DB73EB74091050250916C
:101150000602241B350BE0916102F0916202E21756
:10116000F307A0F42E1B3F0B2817390778F0AC01CA
:101170004E5F5F4F2417350748F04E0F5F1F5093A7
:101180006202409361028193919302C0E0E0F0E03B
:10119000CF01DF91CF9108950F931F93CF93DF93EA
:1011A000009709F48CC0FC013297138212820091DF
:1011B0006302109164020115110581F420813181CF
:1011C000820F931F20916102309162022817390724
:1011D00079F5F0936202E093610271C0D80140E0BA
:1011E00050E0AE17BF0750F412962D913C91139723
:1011F000AD012115310509F1D901F3CF9D01DA01C6
:101200003383228360817181860F971F8217930732
:1012100069F4EC0128813981260F371F2E5F3F4F7B
:10122000318320838A819B8193838283452B29F498
:10123000F0936402E093630242C01396FC93EE9332
:101240001297ED01499159919E01240F351FE21724
:10125000F30771F480819181840F951F0296119696
:101260009C938E938281938113969C938E93129775
:10127000E0E0F0E0D80112968D919C9113970097D1
:1012800019F0F8018C01F6CF8D919C9198012E5F99
:101290003F4F820F931F2091610230916202281705
:1012A000390769F4309729F41092640210926302AE
:1012B00002C0138212821093620200936102DF91D6
:1012C000CF911F910F910895FC01059061507040DE
:1012D0000110D8F7809590958E0F9F1F0895DC011F
:1012E00001C06D9341505040E0F70895FC016150FA
:1012F000704001900110D8F7809590958E0F9F1F38
:1013000008950F931F93CF93DF93FB01238121FD5A
:1013100003C08FEF9FEF28C022FF16C04681578180
:10132000248135814217530744F4A081B1819D0186
:101330002F5F3F4F318320838C93268137812F5F2E
:101340003F4F3783268310C0EB01092F182F0084ED
:10135000F185E02D1995892BE1F68E819F8101960B
:101360009F838E83812F902FDF91CF911F910F91BB
:101370000895FA01AA27283051F1203181F1E8942B
:101380006F936E7F6E5F7F4F8F4F9F4FAF4FB1E078
:101390003ED0B4E03CD0670F781F891F9A1FA11D73
:1013A000680F791F8A1F911DA11D6A0F711D811D74
:1013B000911DA11D20D009F468943F912AE0269F39
:1013C00011243019305D3193DEF6CF010895462F98
:1013D0004770405D4193B3E00FD0C9F7F6CF462F79
:1013E0004F70405D4A3318F0495D31FD40524193E2
:1013F00002D0A9F7EACFB4E0A6959795879577959F
:101400006795BA95C9F700976105710508959B0125
:10141000AC010A2E06945795479537952795BA95AE
:10142000C9F7620F731F841F951FA01D0895F894BC
:02143000FFCFEC
:10143200F80000650220004F6C610A0D0025630A66
:101442000D006C6566740A0D0072696774680A0D96
:10145200006865790A0D00696E69740A0D0025300D
:0A146200345820253034580A0D00DC
:00000001FF
