:100000000C94B4010C9488040C945B040C94AD091A
:100010000C94D1010C94D1010C94D1010C94D10118
:100020000C94D1010C94D1010C94D1010C94D10108
:100030000C94D1010C94D1010C94D1010C94D101F8
:100040000C94D1010C94D1010C94D1010C94D101E8
:100050000C94D1010C94D1010C94D1010C94D101D8
:100060000C94D1010C94D1010C94D1010C94D101C8
:10007000000000000000000000065F5F06000000B6
:100080000007070007070000147F7F147F7F14001C
:10009000242E6B6B3A120000466630180C66620024
:1000A000307A4F5D377A48000407030000000000F3
:1000B000001C3E63410000000041633E1C00000044
:1000C000082A3E1C1C3E2A0808083E3E080800007C
:1000D00000A0E06000000000080808080808000010
:1000E00000006060000000006030180C0603010092
:1000F0003E7F594D7F3E000042427F7F40400000DE
:10010000627359496F660000226349497F360000D7
:10011000181C16137F7F1000276745457D390000A6
:100120003C7E4B4979300000036371190F070000D2
:10013000367F49497F360000064F49693F1E00005F
:1001400000006C6C0000000000A0EC6C00000000DF
:10015000081C366341000000141414141414000029
:10016000004163361C080000020351590F060000CD
:100170003E7F415D5D1F1E007C7E13137E7C000070
:10018000417F7F49497F36001C3E63414163220025
:10019000417F7F41637F1C00417F7F495D41630058
:1001A000417F7F491D0103001C3E63415173720072
:1001B0007F7F08087F7F000000417F7F41000000B3
:1001C000307040417F3F0100417F7F081C77630012
:1001D000417F7F41406070007F7F060C067F7F007B
:1001E0007F7F060C187F7F001C3E6341633E1C002E
:1001F000417F7F49090F06001E3F21717F5E00008D
:10020000417F7F19396F460026674D597B320000C8
:1002100003417F7F410300007F7F40407F7F0000DC
:100220001F3F60603F1F00007F7F3018307F7F00DE
:1002300063771C081C776300074F78784F0700002E
:100240006773594D47637100007F7F414100000093
:100250000103060C183060000041417F7F00000060
:10026000080C0603060C0800808080808080808057
:100270000000030704000000207454543C78400040
:10028000413F7F44447C3800387C44446C28000063
:10029000307848493F7F4000387C54545C18000057
:1002A000487E7F490302000098BCA4A4F87C0400A7
:1002B000417F7F08047C780000447D7D4000000081
:1002C00040C484FD7D000000417F7F10386C4400F5
:1002D00000417F7F400000007C7C0C180C7C780083
:1002E0007C7C04047C780000387C44447C3800002A
:1002F00084FCF8A4243C1800183C24A4F8FC8400D6
:10030000447C78441C180000485C54547424000059
:1003100000043E7F442400003C7C40403C7C400084
:100320001C3C60603C1C00003C7C6030607C3C00FD
:10033000446C3810386C44009CBCA0A0FC7C0000CD
:100340004C64745C4C64000008083E774141000036
:1003500000000077770000004141773E0808000068
:10036000020301030203010011241FBECFEFD4E0FA
:10037000DEBFCDBF12E0A0E0B1E0E4E6FFE102C0E5
:1003800005900D92A83DB107D9F722E0A8EDB2E0A3
:1003900001C01D92AD3EB207E1F70E94D3010C945B
:1003A000B00F0C940000CF93DF93CDB7DEB7CF55DD
:1003B000D1090FB6F894DEBF0FBECDBF8FE190E03C
:1003C0000E945A020E9467020E9409050E9480084A
:1003D00080E00E94950841E061E08BE20E946208A3
:1003E0000E941D030E942703789441E0498380E125
:1003F00091E09B838A834F8F52E058A388E591E078
:100400009AA389A39E01205E3F4F3A8B298B3C8B98
:100410002B8BCE0101969E8F8D8F9DAF8CAF4EAFF3
:100420005FAF43E751E022965FAF4EAF22976E96E3
:100430001FAE6E976D963FAF2EAF6D97215E3F4F0B
:100440003E8B2D8BA0969FAF8EAFA097835A9F4F68
:100450000E94CC07282F082E000C330B3F938F935C
:1004600085E991E09F938F930E94320B8AE991E096
:100470009F938F930E94320B0F900F900F900F90CD
:100480000F900F900E943D098FEF9FE20197F1F7C7
:1004900000C000000E946D090E948D09F3CF5D9B92
:1004A000FECF8CB980E090E008955F9BFECF8CB1C9
:1004B00090E0089590BD89B988E18AB98EE880BD41
:1004C00065E572E08FE492E00E94E70A089585B73F
:1004D000806885BF80B7806280BF08950895FB0162
:1004E00080830895CF92DF92EF92FF920F931F9334
:1004F000CF93DF9388EA91E09F938F930E94320B12
:1005000083ED90E30197F1F700C000000E94D70A45
:100510007C010E94DC0A0F900F90C12CD12CC0E00E
:10052000D0E000EC11E00E94D70AF601F85E80836B
:1005300020812817D1F099279F938F931F922F9393
:10054000DF92CF921F930F930E94320B219683ED7F
:1005500090E30197F1F700C000008DB79EB70896B1
:100560000FB6F8949EBF0FBE8DBF9FEFC91AD90A70
:10057000C11488E0D806B9F6C7010E94DC0A00E081
:1005800010E0E12CF12C0F2EFAEFCF2EF1E0DF2E50
:10059000F02D0E94D70AF801F85E20812817E1F0BB
:1005A00099279F938F931F922F931F930F93DF92FF
:1005B000CF920E94320B9FEFE91AF90A83ED90E384
:1005C0000197F1F700C000008DB79EB708960FB6EF
:1005D000F8949EBF0FBE8DBF0F5F1F4F011598E0AF
:1005E0001907B9F6FF92EF92DF93CF9388E392E079
:1005F0009F938F930E94320B83ED90E30197F1F765
:1006000000C000000F900F900F900F900F900F9070
:10061000DF91CF911F910F91FF90EF90DF90CF90DE
:100620000895E0910001F091010180810895E09129
:100630000001F091010180830895E0EEF2E080E88E
:1006400080838183EEEDF2E080838183089581B31E
:100650008C7F81BB8BB7806C8BBF85B7836085BF78
:1006600085B78C6085BF0895E0910001F09101018C
:1006700084E0808324EA2A95F1F7E0910001F0916B
:100680000101808194EA9A95F1F7E0910001F091DF
:10069000010195E0908324EA2A95F1F7E0910001A9
:1006A000F0910101908124EA2A95F1F71F929F931E
:1006B0001F928F9384E992E09F938F930E94320B55
:1006C0000F900F900F900F900F900F900895E09162
:1006D0000001F091010186E0808324EA2A95F1F778
:1006E000E0910001F0910101908184EA8A95F1F78F
:1006F000E0910001F091010187E0808324EA2A95CE
:10070000F1F7E0910001F0910101808121E42A9547
:10071000F1F700C01F929F931F928F9386EA92E099
:100720009F938F930E94320B0F900F900F900F901A
:100730000F900F900895E0910001F091010184E085
:10074000808381E48A95F1F700C0E0910001F09187
:10075000010140818091E002242F30E090E0821B73
:10076000930B52F48091E002281B310951E02436AA
:10077000310564F050E00AC08091E00290E0821BF5
:10078000930B51E0843691050CF050E0552319F09D
:100790004093E00204C08091DE028093E00285E095
:1007A000808381E48A95F1F700C0E0910001F09127
:1007B000010140818091E102242F30E090E0821B12
:1007C000930B52F48091E102281B310951E0243649
:1007D000310564F050E00AC08091E10290E0821B94
:1007E000930B51E0843691050CF050E0552319F03D
:1007F0004093E10204C08091DF028093E10281E432
:100800008A95F1F700C08091E0028E3750F0809118
:10081000E002843830F42091E10280E890E0922FE9
:1008200008958091E0029091E1020895E091000125
:10083000F091010186E0808321E42A95F1F700C060
:10084000E0910001F0910101908181E48A95F1F736
:1008500000C0E0910001F091010187E0808321E474
:100860002A95F1F700C0E0910001F091010180812B
:1008700021E42A95F1F700C008950E949B038B3F65
:1008800010F49B3F28F0981760F0891760F008C0BB
:10089000853010F0953048F4891748F0981748F0E3
:1008A000089581E0089582E0089584E0089580E04D
:1008B000089583E008951F920F920FB60F921124AE
:1008C0002F933F934F935F936F937F938F939F9358
:1008D000AF93BF93EF93FF9388EB92E09F938F9337
:1008E0000E94320B81E08093DC020F900F90FF9109
:1008F000EF91BF91AF919F918F917F916F915F9198
:100900004F913F912F910F900FBE0F901F90189510
:100910001F920F920FB60F9211242F933F934F9374
:100920005F936F937F938F939F93AF93BF93EF9357
:10093000FF938FEB92E09F938F930E94320B81E0A5
:100940008093DD020F900F90FF91EF91BF91AF91D7
:100950009F918F917F916F915F914F913F912F91D7
:100960000F900FBE0F901F901895E0910401F09129
:10097000050180830895E0910201F09103018083D5
:100980000895CF93DF9300D0CDB7DEB7982F92951F
:100990009F7099839981905F99838295807F8A83E4
:1009A0008A8182958F708A838981E0910401F09118
:1009B000050180838A81E0910401F0910501808323
:1009C0000F900F90DF91CF9108958055E091040131
:1009D000F091050180830895CF93C62F0E94E5040E
:1009E0008C2F0E94C104CF910895CF93C0E060E0A6
:1009F0008C2F0E94EC0490E0E0910201F091030141
:100A000010829F5F9038C1F7CF5FC83081F7CF91D8
:100A10000895E0910401F09105018EEA8083E09150
:100A20000401F091050181EA8083E0910401F091D5
:100A300005018AED8083E0910401F091050182E1D6
:100A40008083E0910401F091050188EC8083E091BE
:100A50000401F091050188EA8083E0910401F0919E
:100A600005018FE38083E0910401F091050185ED9C
:100A70008083E0910401F091050180E88083E0919A
:100A80000401F091050181E88083E0910401F09177
:100A9000050180E58083E0910401F091050189ED75
:100AA0008083E0910401F091050181E28083E0916F
:100AB0000401F091050180E28083E0910401F0914E
:100AC000050182E08083E0910401F09105018BED46
:100AD0008083E0910401F091050180E38083E0913F
:100AE0000401F09105018DEA8083E0910401F09109
:100AF000050184EA8083E0910401F091050186EA12
:100B00008083E0910401F09105018FEA8083E091F8
:100B10000401F091050180EB8083E0910401F091E4
:100B200005011082E0910401F091050180E18083CC
:100B30000E94F504089528E08202C0011124FC01FE
:100B4000E059F04080E09491A0910201B09103013E
:100B50009C938F5F31968830B1F70895EF92FF92A2
:100B60000F931F93CF93DF938C010E94F50460E0F5
:100B700080E00E94EC04D8011196ED91FC9112974F
:100B80008081803219F481E014968C93D8011196FB
:100B9000ED91FC9112978081882389F1C1E0D0E02A
:100BA000F12CEE24E394843219F00E949B051CC0C2
:100BB000F39460E08F2D0E94EC04D8011196ED9122
:100BC000FC911297EC0FFD1F8081803239F4F801FF
:100BD000EF0DF11DF7FCFA95E48206C0F801EF0D68
:100BE000F11DF7FCFA951482D8011196ED91FC9154
:100BF0001297EC0FFD1F808121968111D4CFDF91D8
:100C0000CF911F910F91FF90EF90089560E00E94A7
:100C1000EC04E0910201F091030188E18083E0910E
:100C20000201F09103018083E0910201F091030140
:100C30009EE79083E0910201F09103019CE3908391
:100C4000E0910201F09103018083089560E00E9429
:100C5000EC04E0910201F09103011082E0910201A5
:100C6000F09103011082E0910201F09103011082E2
:100C7000E0910201F09103011082E0910201F091F4
:100C80000301108208950F931F93CF93DF93CDB785
:100C9000DEB71DA1112379F11092DB028091DB02F6
:100CA00088304CF58091DB02E7E0F0E0EC0FFD1FAF
:100CB000E80FF11D87FDFA95848181110EC012C0E5
:100CC0008091DB02EBE0F0E0EC0FFD1FE80FF11D7F
:100CD00087FDFA958081882329F08091DB020E94AC
:100CE000060609C08091DB028F5F8093DB02809152
:100CF000DB0288302CF30E943D048093E202809155
:100D0000E20282300CF410C107E0112309F403C1A0
:100D10008091E202833009F07DC08091DB020E9465
:100D200026068091DB0287308CF58091DB028F5F95
:100D30008093DB028091DB02EBE0F0E0EC0FFD1F23
:100D4000E80FF11D87FDFA95808181111AC00CC052
:100D50008091DB02873034F48091DB028F5F8093D7
:100D6000DB0202C01092DB028091DB02EBE0F0E0DC
:100D7000EC0FFD1FE80FF11D87FDFA958081882398
:100D800039F38091DB020E9406062DC01092DB022F
:100D90008091DB02EBE0F0E0EC0FFD1FE80FF11DAE
:100DA00087FDFA95808181111AC00CC08091DB0209
:100DB000873034F48091DB028F5F8093DB0202C0C6
:100DC0001092DB028091DB02EBE0F0E0EC0FFD1F04
:100DD000E80FF11D87FDFA958081882339F3809112
:100DE000DB020E9406062FEF8FE791E02150804042
:100DF0009040E1F700C000C00E943D048330E1F361
:100E00002FEF8FE791E0215080409040E1F700C044
:100E100000C081C08091E202823009F07CC08091E4
:100E2000DB020E9426068091DB0218168CF5809169
:100E3000DB0281508093DB028091DB02EBE0F0E08B
:100E4000EC0FFD1FE80FF11D87FDFA9580818111E0
:100E50001AC00CC08091DB02181634F48091DB02BA
:100E600081508093DB0202C00093DB028091DB02A1
:100E7000EBE0F0E0EC0FFD1FE80FF11D87FDFA95A8
:100E80008081882339F38091DB020E9406062DC001
:100E90000093DB028091DB02EBE0F0E0EC0FFD1F42
:100EA000E80FF11D87FDFA95808181111AC00CC0F1
:100EB0008091DB02181634F48091DB02815080931C
:100EC000DB0202C00093DB028091DB02EBE0F0E08A
:100ED000EC0FFD1FE80FF11D87FDFA958081882337
:100EE00039F38091DB020E9406062FEF8FE791E035
:100EF000215080409040E1F700C000C00E943D04B6
:100F00008230E1F32FEF8FE791E021508040904055
:100F1000E1F700C000C00E943D048093E20280918E
:100F2000E20282300CF0F1CEDF91CF911F910F9150
:100F30000895CF93DF93EC010E94AE058091E20209
:100F40008130E9F4E091DB020E2E000CFF0B3696A7
:100F5000EE0FFF1FEC0FFD1F80819181892BC9F0DF
:100F60008091DB02082E000C990B0696880F991FC2
:100F7000C80FD91F888199810E9499070AC0809162
:100F8000E202811106C08C8D9D8D009711F00E94A8
:100F90009907DF91CF9108950F931F93CF93DF931C
:100FA000EC010FE149C0FC0110810E94AE05E8810F
:100FB000F9812DB73EB72F5131090FB6F8943EBFD6
:100FC0000FBE2DBFADB7BEB71196802F01900D9209
:100FD0008A95E1F70E9443068091E202EDB7FEB7E1
:100FE0007F960FB6F894FEBF0FBEEDBF8130A9F417
:100FF0000E943D048130E1F3E091DB028881998118
:101000000E2E000CFF0B3696EE0FFF1FE80FF91F98
:1010100080819181998388830FC08091E202882327
:1010200039F00AC0E881F981248D358D3983288310
:101030000E943D048823B1F388819981009709F0CB
:10104000B2CF812FDF91CF911F910F91089580EB47
:1010500087BB80E58DB908958FB9779BFECF089542
:1010600080E00E942C088FB10895CF93C82FC498B8
:1010700083E00E942C088C2F0E942C080E943008CC
:10108000C49ACF910895CF93DF93D82FC62FC498D9
:1010900082E00E942C088D2F0E942C088C2F0E9429
:1010A0002C08C49ADF91CF910895C4980E942C080F
:1010B000C49A0895C49880EA0E942C080E943008BF
:1010C000C49A08951F93CF93DF93182FD62FC42F60
:1010D000C49885E00E942C08812F0E942C088D2F37
:1010E0000E942C088C2F0E942C08C49ADF91CF916B
:1010F0001F910895C49880EC0E942C08C49A08950A
:101100000E9427080E947A0830988BB780628BBFB4
:1011100086B78E7F86BF41E061E08BE20E94620865
:1011200060E680E60E9443080895482F60EE8FE055
:101130000E9462080895EF92FF920F931F93CF933E
:10114000DF93CDB7DEB72B970FB6F894DEBF0FBE97
:10115000CDBFE982FA820B831C832D833E834F83AC
:10116000588769877A878B876E2D81E30E944308B1
:101170006A8182E30E944308602F85E30E9443084E
:10118000002379F07E0184E0E80EF11C0A5C16E38E
:10119000F70161917F01812F0E9443081F5F1013A7
:1011A000F7CF81E80E9455082B960FB6F894DEBF62
:1011B0000FBECDBFDF91CF911F910F91FF90EF90A8
:1011C00008958CE20E94350880FF14C040E061E081
:1011D0008CE20E94620886E60E9435081F928F9377
:1011E00087EC92E09F938F930E94320B0F900F90A9
:1011F0000F900F900895CF9360E081E30E94430821
:1012000060E282E30E94430861E085E30E944308B4
:101210000E949B03C92F682F86E30E9443086C2F0E
:1012200087E30E94430881E80E945508CF91089502
:10123000CF9360E081E30E94430860E482E30E9470
:10124000430861E085E30E9443080E941604C92F09
:10125000692F86E30E9443081F92CF9381ED92E0AD
:101260009F938F930E94320B81E80E9455080F9044
:101270000F900F900F90CF9108950F931F93CF93DE
:10128000DF9360E081E30E94430860EE82E30E9406
:10129000430864E085E30E9443080E949B03082FF3
:1012A000192F0E941604C82FD92F602F86E30E94A1
:1012B0004308612F87E30E9443086D2F88E30E9453
:1012C00043086C2F89E30E94430881E80E94550877
:1012D000DF91CF911F910F9108958091DD028823B6
:1012E000D9F01092DD0260E081E30E94430860E4DF
:1012F00082E30E94430861E085E30E94430860E0C6
:1013000086E30E94430881E80E9455088FEF9FE220
:101310000197F1F700C0000008958091DC02882356
:10132000D9F01092DC0260E081E30E94430860E2A1
:1013300082E30E94430861E085E30E94430860E085
:1013400086E30E94430881E80E9455088FEF9FE2E0
:101350000197F1F700C0000008951F920F920FB699
:101360000F921124AF92BF92CF92DF92EF92FF9231
:101370000F931F932F933F934F935F936F937F939D
:101380008F939F93AF93BF93EF93FF93CF93DF938D
:10139000CDB7DEB72897DEBFCDBF4EEF61E08CE260
:1013A0000E946208FE01319688E0DF011D928A9555
:1013B000E9F781E60E943508811138C082E60E9473
:1013C000350885FF33C0FE0131967F016E01F2E0E2
:1013D000CF0ED11C16E60F2EFCECAF2EF2E0BF2E86
:1013E000F02D812F0E943508D7018C9381E0810F69
:1013F0000E943508F60180831F928F93D7018C914C
:101400001F928F93BF92AF920E94320B1E5FB2E089
:10141000EB0EF11CE2E0CE0ED11C0F900F900F905E
:101420000F900F900F901E36E1F654C081E60E9497
:10143000350881111DC082E60E94350886FF18C05C
:1014400016E60F2EF1EDEF2EF2E0FF2EF02D812F9C
:101450000E9435081F928F93FF92EF920E94320BE9
:101460001F5F0F900F900F900F901E3681F732C0C4
:1014700085E60E9435088F70D82EF8E0F81718F42A
:101480006894DD24D3F8DD20C9F006E60D0D16E6DC
:101490000F2EF7ECEF2EF2E0FF2EF02D812F0E94A1
:1014A00035081F928F93FF92EF920E94320B1F5FBD
:1014B0000F900F900F900F901013F0CF1F92DF92AC
:1014C00085E991E09F938F930E94320B0F900F90CC
:1014D0000F900F9028960FB6F894DEBF0FBECDBFC9
:1014E000DF91CF91FF91EF91BF91AF919F918F913C
:1014F0007F916F915F914F913F912F911F910F912C
:10150000FF90EF90DF90CF90BF90AF900F900FBE05
:101510000F901F9018958F929F92AF92BF92CF928B
:10152000DF92EF92FF92CF93DF93EC016881798194
:101530008A819B81611571058105910521F464E221
:1015400079ED8BE597E02DE133EF41E050E00E942B
:10155000160F49015A019B01AC01A7EAB1E40E94B0
:10156000350F6B017C01ACEEB4EFA50194010E9434
:10157000430FDC01CB018C0D9D1DAE1DBF1DB7FFC0
:1015800003C00197A109B04888839983AA83BB83CC
:101590009F77DF91CF91FF90EF90DF90CF90BF903A
:1015A000AF909F908F9008950E948B0A089586E0D7
:1015B00091E00E948B0A0895A0E0B0E080930601BC
:1015C00090930701A0930801B093090108950F9328
:1015D0001F93CF93DF93009731F46115710519F4D0
:1015E00080E090E03AC08B01EC016EE070E081E0B9
:1015F00090E00E941A0DFC01892B91F380E883830F
:101600000115110571F01387028781E883838091AA
:10161000E3029091E402892B21F4F093E402E09339
:10162000E3022097C9F0D187C087838182608383DA
:101630008091E5029091E602892B71F4F093E60225
:10164000E093E5028091E7029091E802892B21F472
:10165000F093E802E093E702CF01DF91CF911F9171
:101660000F910895A0E0B0E0E8E3FBE00C94580F80
:10167000AE014B5F5F4FFA0161917191AF018091B3
:10168000E5029091E6020E94480BE2E00C94740F90
:10169000ACE0B0E0EEE4FBE00C94480F7C016B01A1
:1016A0008A01FC0117821682838181FFBDC1CE01B0
:1016B00001964C01F7019381F60193FD859193FF0B
:1016C00081916F01882309F4ABC1853239F493FD10
:1016D000859193FF81916F01853229F4B70190E0E4
:1016E0000E94800EE7CF512C312C20E02032A0F454
:1016F0008B3269F030F4803259F0833269F4206122
:101700002CC08D3239F0803339F4216026C022603C
:10171000246023C0286021C027FD27C030ED380F8A
:101720003A3078F426FF06C0FAE05F9E300D1124AF
:10173000532E13C08AE0389E300D1124332E2062C0
:101740000CC08E3221F426FD6BC1206406C08C369D
:1017500011F4206802C0883641F4F60193FD8591AA
:1017600093FF81916F018111C1CF982F9F7D955477
:10177000933028F40C5F1F4FFFE3F9830DC08336CD
:1017800031F0833771F0833509F05BC022C0F80176
:10179000808189830E5F1F4F44244394512C540150
:1017A00015C03801F2E06F0E711CF801A080B18005
:1017B00026FF03C0652D70E002C06FEF7FEFC5010B
:1017C0002C870E94750E2C0183012C852F77222EE9
:1017D00017C03801F2E06F0E711CF801A080B180D3
:1017E00026FF03C0652D70E002C06FEF7FEFC501DB
:1017F0002C870E94630E2C012C852068222E8301E9
:1018000023FC1BC0832D90E048165906B0F4B701A5
:1018100080E290E00E94800E3A94F4CFF50127FC1C
:10182000859127FE81915F01B70190E00E94800EB3
:1018300031103A94F1E04F1A51084114510471F7F4
:10184000E5C0843611F0893639F5F80127FF07C065
:1018500060817181828193810C5F1F4F08C060811C
:101860007181072E000C880B990B0E5F1F4F2F768E
:10187000722E97FF09C090958095709561957F4F66
:101880008F4F9F4F2068722E2AE030E0A4010E9403
:10189000B80EA82EA81844C0853729F42F7EB22E82
:1018A0002AE030E025C0F22FF97FBF2E8F36C1F03D
:1018B00018F4883579F0B4C0803719F0883721F0F2
:1018C000AFC02F2F2061B22EB4FE0DC08B2D8460CF
:1018D000B82E09C024FF0AC09F2F9660B92E06C0FB
:1018E00028E030E005C020E130E002C020E132E035
:1018F000F801B7FE07C060817181828193810C5F1E
:101900001F4F06C06081718180E090E00E5F1F4F25
:10191000A4010E94B80EA82EA818FB2DFF777F2ED9
:1019200076FE0BC0372D3E7FA51450F474FE0AC01E
:1019300072FC08C0372D3E7E05C0BA2C372D03C07F
:10194000BA2C01C0B52C34FF0DC0FE01EA0DF11D0B
:101950008081803311F4397E09C032FF06C0B39410
:10196000B39404C0832F867809F0B39433FD13C079
:1019700030FF06C05A2CB31418F4530C5B18B32C68
:10198000B31468F4B70180E290E03C870E94800EB7
:10199000B3943C85F5CFB31410F43B1801C0312C3F
:1019A00034FF12C0B70180E390E03C870E94800EB4
:1019B0003C8532FF17C031FD03C088E790E002C0CC
:1019C00088E590E0B7010CC0832F867859F031FF8D
:1019D00002C08BE201C080E237FD8DE2B70190E0EA
:1019E0000E94800EA51438F4B70180E390E00E94B5
:1019F000800E5A94F7CFAA94F401EA0DF11D80816C
:101A0000B70190E00E94800EA110F5CF332009F4B9
:101A100051CEB70180E290E00E94800E3A94F6CF5A
:101A2000F7018681978102C08FEF9FEF2C96E2E14C
:101A30000C94640F0F931F93CF93DF93869F8001C5
:101A4000879F100D969F100D1124C8010E94360D1E
:101A5000EC01009729F0A80160E070E00E946E0E92
:101A6000CE01DF91CF911F910F910895CF93DF9316
:101A70008230910510F482E090E0E091EB02F09169
:101A8000EC0220E030E0C0E0D0E0309711F140817E
:101A9000518148175907C0F04817590761F48281EE
:101AA0009381209719F09B838A832BC09093EC023B
:101AB0008093EB0226C02115310519F04217530718
:101AC00018F49A01BE01DF01EF010280F381E02DDD
:101AD000DCCF2115310509F1281B390B24303105E4
:101AE00090F412968D919C9113976115710521F0D8
:101AF000FB019383828304C09093EC028093EB02FA
:101B0000FD01329644C0FD01E20FF31F81939193D2
:101B1000225031092D933C933AC02091E902309133
:101B2000EA02232B41F420910C0130910D013093F6
:101B3000EA022093E90220910A0130910B0121155C
:101B4000310541F42DB73EB740910E0150910F0180
:101B5000241B350BE091E902F091EA02E217F3074A
:101B6000A0F42E1B3F0B2817390778F0AC014E5F0D
:101B70005F4F2417350748F04E0F5F1F5093EA025E
:101B80004093E9028193919302C0E0E0F0E0CF013D
:101B9000DF91CF9108950F931F93CF93DF93009719
:101BA00009F48CC0FC013297138212820091EB027F
:101BB0001091EC020115110581F420813181820F11
:101BC000931F2091E9023091EA022817390779F52D
:101BD000F093EA02E093E90271C0D80140E050E0DE
:101BE000AE17BF0750F412962D913C911397AD019B
:101BF0002115310509F1D901F3CF9D01DA013383B4
:101C0000228360817181860F971F8217930769F481
:101C1000EC0128813981260F371F2E5F3F4F31831A
:101C200020838A819B8193838283452B29F4F093BF
:101C3000EC02E093EB0242C01396FC93EE931297F2
:101C4000ED01499159919E01240F351FE217F307C9
:101C500071F480819181840F951F029611969C9357
:101C60008E938281938113969C938E931297E0E0DA
:101C7000F0E0D80112968D919C911397009719F07E
:101C8000F8018C01F6CF8D919C9198012E5F3F4F0A
:101C9000820F931F2091E9023091EA022817390739
:101CA00069F4309729F41092EC021092EB0202C012
:101CB000138212821093EA020093E902DF91CF911E
:101CC0001F910F910895FC01059061507040011023
:101CD000D8F7809590958E0F9F1F0895DC0101C065
:101CE0006D9341505040E0F70895FC016150704001
:101CF00001900110D8F7809590958E0F9F1F089541
:101D00000F931F93CF93DF93FB01238121FD03C02A
:101D10008FEF9FEF28C022FF16C046815781248194
:101D200035814217530744F4A081B1819D012F5F93
:101D30003F4F318320838C93268137812F5F3F4F24
:101D40003783268310C0EB01092F182F0084F185FB
:101D5000E02D0995892BE1F68E819F8101969F8365
:101D60008E83812F902FDF91CF911F910F91089536
:101D7000FA01AA27283051F1203181F1E8946F93BC
:101D80006E7F6E5F7F4F8F4F9F4FAF4FB1E03ED062
:101D9000B4E03CD0670F781F891F9A1FA11D680F00
:101DA000791F8A1F911DA11D6A0F711D811D911D33
:101DB000A11D20D009F468943F912AE0269F1124A8
:101DC0003019305D3193DEF6CF010895462F47700C
:101DD000405D4193B3E00FD0C9F7F6CF462F4F7067
:101DE000405D4A3318F0495D31FD4052419302D0C5
:101DF000A9F7EACFB4E0A69597958795779567956B
:101E0000BA95C9F700976105710508959B01AC016A
:101E10000A2E06945795479537952795BA95C9F791
:101E2000620F731F841F951FA01D0895052E97FB39
:101E30001EF400940E942D0F57FD07D00E947F0FC3
:101E400007FC03D04EF40C942D0F5095409530951F
:101E500021953F4F4F4F5F4F089590958095709516
:101E600061957F4F8F4F9F4F08950E94A10FA59FAF
:101E7000900DB49F900DA49F800D911D1124089585
:101E8000B7FF0C94350F0E94350F821B930B0895FA
:101E90002F923F924F925F926F927F928F929F927A
:101EA000AF92BF92CF92DF92EF92FF920F931F9368
:101EB000CF93DF93CDB7DEB7CA1BDB0B0FB6F89419
:101EC000DEBF0FBECDBF09942A88398848885F8459
:101ED0006E847D848C849B84AA84B984C884DF80CA
:101EE000EE80FD800C811B81AA81B981CE0FD11DAE
:101EF0000FB6F894DEBF0FBECDBFED010895A1E28D
:101F00001A2EAA1BBB1BFD010DC0AA1FBB1FEE1F73
:101F1000FF1FA217B307E407F50720F0A21BB30BBE
:101F2000E40BF50B661F771F881F991F1A9469F73A
:101F300060957095809590959B01AC01BD01CF0196
:101F40000895A29FB001B39FC001A39F700D811D92
:101F50001124911DB29F700D811D1124911D0895B2
:041F6000F894FFCF23
:101F6400001400120010010000000000ED02200027
:101F74002D2D2D4D61696E20206D656E752D2D2DD5
:101F84002457616E7420746F20706C61793F242033
:101F9400202020204E65772067616D652420202055
:101FA4002020526573756D652067616D652420205E
:101FB4002020204578697400202020202054727944
:101FC40024202020202054727924202020202054F2
:101FD4007279002424476F20746F2074686520721E
:101FE40069677468242020746F20636F6E74696E4F
:101FF400756520200025640A0D0048656C6C6F200F
:10200400776F726C640A0D005374617274696E6741
:10201400205352414D20746573742E2E2E0A0D00E8
:102024005772697465207068617365206572726F98
:10203400723A206578745F72616D5B2534645D204B
:102044003D2025303258202873686F756C642062F7
:10205400652025303258290A0D005265747269656D
:1020640076616C207068617365206572726F723A74
:10207400206578745F72616D5B2534645D203D205A
:1020840025303258202873686F756C64206265208F
:1020940025303258290A0D005352414D207465737E
:1020A4007420636F6D706C657465642077697468FF
:1020B400200A0D253464206572726F727320696E74
:1020C40020777269746520706861736520616E643D
:1020D400200A0D253464206572726F727320696E54
:1020E40020726574726976616C2070686173650D25
:1020F4000A0D0A00282025303264202C2025303295
:102104006420290A0D00282025303258202C20254F
:1021140030325820290A0D004C6566740A0D0052AD
:10212400696768740A0D0025630A0D00253032586A
:0821340020253032580A0D008D
:00000001FF
